S00F00004163726F626F742E737265634B
S11300000C94C3000C94E0000C94E0000C94E00009
S11300100C94E0000C94E0000C94E0000C94E000DC
S11300200C94E0000C94E0000C9468050C94A60574
S11300300C94E0000C94E0000C94E0000C94E000BC
S11300400C94E0000C94E0000C94E0000C94E000AC
S11300500C94E0000C94E0000C94E0000C94E0009C
S11300600C94E0000C94E0000C94E0000C94E0008C
S11300700C94E0000C94E0000C94E0000C94E0007C
S11300800C94E0000C94E0000C94E0000C94E0006C
S11300900C94E0000C94E0000C94E0000C94E0005C
S11300A00C94E0000C94E0000C94E0000A00096752
S11300B0785F66696C74657265640900096D6F76B2
S11300C0650900096F666673657409006572726F6D
S11300D0720900000100006A0112000200002701F9
S11300E04300030000230104010309040F01120269
S11300F003090407010603030904FD000808033487
S11301000031003000000006034D003200000012F0
S1130110034A002E0020004600690065006E006559
S11301200000000403090409024300020100C03274
S11301300904000001020201000524001001052445
S113014001010104240206052406000107058203B7
S113015010004009040100020A0000000705030220
S11301604000000705840240000012010002020062
S11301700010C0167A040001010203010001C1123B
S113018001803601813611241FBECFEFDAE0DEBFD5
S1130190CDBF11E0A0E0B1E0E2E2F4E102C00590DD
S11301A00D92A431B107D9F721E0A4E1B1E001C077
S11301B01D92A536B207E1F70E94E2000C940F0AE3
S11301C00C940000CF93DF93CDB7DEB760970FB6E2
S11301D0F894DEBF0FBECDBFE1E6F0E080E8808397
S11301E083E08083E1E8F0E080818B7F80838081FD
S11301F08260808380818E7F808380818061808320
S1130200808188608083E0E8F0E080818260808380
S113021080818160808380818062808380818F7E01
S113022080830E94F40460E080E00E9435048AEF39
S113023090E090938900809388001AEF0F2EF8E9DC
S11302402F2EFAE33F2EF02D86E391E00E94A204C4
S113025080935401E6E3F1E080819181909353010E
S1130260809352018281938190936401809363010E
S11302708481958190935101809350018681978167
S113028090936201809361018085918590934F01E1
S113029080934E018285938590935A0180935901EE
S11302A06091610170916201C0901C01D0901D01A8
S11302B0E0901E01F0901F01072E000C880B990B93
S11302C00E9490082FE632E143E85AE30E94210994
S11302D0A70196010E947A0760932001709321017F
S11302E08093220190932301609120017091210158
S11302F0809122019091230120911C0130911D01D4
S113030040911E0150911F01C0901401D09015011D
S1130310E0901601F09017010E947907A701960159
S11303200E947A0724EA30E74DE75FE30E9421093F
S1130330609318017093190180931A0190931B0123
S113034060912001709121018091220190912301FB
S11303508090300190903101A0903201B09033012F
S1130360E0906301F09064012FE632E143E85AE340
S11303700E942109A50194010E947A0728E431EE24
S11303804AE75FE30E9421094B015C01B701FF0CBE
S1130390880B990B0E9490082AE037ED43EA5CE34E
S11303A00E9421099B01AC01C501B4010E947A0796
S11303B06093300170933101809332019093330143
S11303C0609124017091250180912601909127016B
S11303D0209130013091310140913201509133012B
S11303E00E94790760935B0170935C0180935D01C7
S11303F090935E01609108017091090180910A0156
S113040090910B0120915B0130915C0140915D0161
S113041050915E0180905B0190905C01A0905D0121
S1130420B0905E01409028015090290160902A010B
S113043070902B01C0900401D0900501E09006015A
S1130440F0900701C982DA82EB82FC82C09000013D
S1130450D0900101E0900201F0900301CD86DE8688
S1130460EF86F88AC0902C01D0902D01E0902E01E7
S1130470F0902F01CD82DE82EF82F8860E9421095E
S11304806B017C01A3019201C501B4010E947907AB
S113049029813A814B815C810E9421092FE632E156
S11304A043E85AE30E94E6079B01AC01C701B60189
S11304B00E947A074B015C012D813E814F81588552
S11304C06D857E858F8598890E9421092FE632E10A
S11304D043E85AE30E9421099B01AC01C501B40120
S11304E00E947A070E94580870935101609350014A
S11304F0609108017091090180910A0190910B01AA
S113050020915B0130915C0140915D0150915E014D
S113051080905B0190905C01A0905D01B0905E01C1
S1130520409028015090290160902A0170902B017D
S1130530C0900401D0900501E0900601F0900701FD
S1130540C982DA82EB82FC82C0900001D090010162
S1130550E0900201F0900301CD86DE86EF86F88AF2
S1130560C0902C01D0902D01E0902E01F0902F012D
S1130570CD82DE82EF82F8860E9421096B017C0124
S1130580A3019201C501B4010E94790729813A812E
S11305904B815C810E9421092FE632E143E85AE352
S11305A00E94E6079B01AC01C701B6010E947A07CD
S11305B04B015C012D813E814F8158856D857E857F
S11305C08F8598890E9421092FE632E143E85AE396
S11305D00E9421099B01AC01C501B4010E947A0764
S11305E00E9458089B01772324F422273327261BD3
S11305F0370B129FC001139F900D1124B1010E946B
S1130600B209EAE8F0E07183608380915B01909124
S11306105C01A0915D01B0915E01809328019093EB
S11306202901A0932A01B0932B0160912C017091B0
S11306302D0180912E0190912F0120915B01309129
S11306405C0140915D0150915E010E947A076093C4
S11306502C0170932D0180932E0190932F01EAE8D1
S1130660F0E0808191819093350180933401609111
S1130670300170913101809132019091330120E079
S113068030E0A9010E941C0918165CF46E9A769A4F
S113069021982998229A2A9A549A5C9A56985E9894
S11306A00AC06E9A7698219A299A22982A98569A7C
S11306B05E9A54985C988CEC90E00E9429076091B3
S11306C05B0170915C0180915D0190915E010E94DB
S11306D05808CB010E94450783EC90E00E9429074B
S11306E08091590190915A010E9445078CEB90E04A
S11306F00E94290780913401909135010E94450799
S11307008EEA90E00E9429076091200170912101F6
S113071080912201909123010E945808CB010E94EC
S113072045078CEA90E00E9429078ECD589A599A81
S11307305A9A8CE08093B800E9E6F0E08081806208
S1130740808380818F7E8083EA9A7894089584E8F8
S11307508093BC00ECEBF0E080818823ECF780917F
S1130760BB00089520E030E0ECEBF0E080818823CA
S113077034F02F5F3F4F293E83E03807B9F781E01B
S1130780283E334009F480E008958093BB0084E858
S11307908093BC000E94B203882319F08091B900B1
S11307A0887F0895CF93DF93C82FD62F84EA809350
S11307B0BC000E94B203811104C094E99093BC0070
S11307C01CC0DD2361F08C2F880F8F5F0E94C5034E
S11307D0883481F484E98093BC0080E00EC08C2FBF
S11307E0880F0E94C503803239F484E98093BC00E9
S11307F080E003C081E001C081E0DF91CF910895E2
S1130800CF93DF93C82FD62F60E00E94D2038823B2
S113081079F08D2F0E94C503882351F084E98093D9
S1130820BC0061E08C2F0E94D20381110E94A703B7
S1130830DF91CF910895CF93DF93C62FD42F60E03B
S11308400E94D203882371F08C2F0E94C503882351
S113085049F08D2F0E94C503882321F084E98093F9
S1130860BC0081E0DF91CF910895CF93DF93843072
S113087008F060C0643008F05FC0D62FC82F0E9413
S113088096032FE58AEE90E0215080409040E1F7F6
S113089000C0000065E789E60E940004883609F07C
S11308A04DC041E06BE689E60E941B044C2F440FC7
S11308B0440F440F6CE189E60E941B044D2F440F42
S11308C0440F440F6BE189E60E941B0442E067E396
S11308D089E60E941B0440E062E08EE10E941B0452
S11308E040E067E389E60E941B044EE164E389E685
S11308F00E941B0441E067E689E60E941B044DE167
S113090064E289E60E941B044EE965E289E60E94DE
S11309101B0443E066E289E60E941B0446E967E2A1
S113092089E60E941B0440E26AE689E60E941B04F1
S113093081E005C080E003C080E001C080E0DF9179
S1130940CF910895CF92DF92EF92FF921F93CF93AE
S1130950DF93CDB7DEB764970FB6F894DEBF0FBE52
S1130960CDBF6C01CE0101967C011EE4612F89E6A6
S11309700E940004F70181937F0111501A33B1F7EB
S11309808F859889F601958384838F8198859387D1
S1130990828789819A81918B808B89899A899383B3
S11309A0828389859A85918780878B819C819787AB
S11309B086878B899C89918380838B859C8597838B
S11309C086838D819E819587848781E064960FB6A6
S11309D0F894DEBF0FBECDBFDF91CF911F91FF9082
S11309E0EF90DF90CF90089581E08093D70080EA64
S11309F08093D80082E189BD09B400FEFDCF80E96F
S1130A008093D8001092E00010924B01109248019C
S1130A108CE08093E20078940895CF93DF939091D3
S1130A204B01992309F44CC09FB7F89424E0209318
S1130A30E90020914901222349F02091E80025FD95
S1130A4003C09FBF8FEF41C0109249013091E40071
S1130A50375E2091E80025FD24C09FBF9091E400FB
S1130A60931781F090914B01992361F1A9EEB0E0C5
S1130A7044E0E8EEF0E0C4EED0E00DC09FBF988102
S1130A80931305C081E0809349018FEF1EC09091BC
S1130A904B019923C9F09FB7F8944C93208125FF0B
S1130AA0EDCF8093F1008091E80085FD03C08AE3D7
S1130AB08093E80085E080934A019FBF80E005C0F1
S1130AC08FEF03C08FEF01C08FEFDF91CF910895B7
S1130AD01F920F920FB60F9211248F939F93EF934F
S1130AE0FF93E1EEF0E08081108283FF11C0109249
S1130AF0E90091E09093EB001092EC0092E1909366
S1130B00ED0098E09093F00010924B011092480190
S1130B1082FF13C080914B01882379F080914A01B0
S1130B20882359F0815080934A01811106C084E0E2
S1130B308093E9008AE38093E800FF91EF919F910D
S1130B408F910F900FBE0F901F9018951F920F92C8
S1130B500FB60F9211240F931F932F933F934F932C
S1130B605F936F937F938F939F93AF93BF93CF9331
S1130B70DF93EF93FF931092E9008091E80083FFE5
S1130B804CC1E1EFF0E0608180812081908130E010
S1130B90392B4081908150E0592B7081C08192EFB4
S1130BA09093E800863009F058C004C081E2809335
S1130BB0EB003AC166E083ED90E0FC01A591B491AD
S1130BC02A173B0711F0079623C0FC013296A59122
S1130BD0B4914A175B0711F007961AC0FC013496CA
S1130BE045915491FC0136962491872F90E09C2BDB
S1130BF08F3F910519F010F08FEF90E0821708F401
S1130C00282FA8EEB0E070E16EEFC1EFD0E003C092
S1130C10615099F6CBCF8C91982F9570E1F382FDBA
S1130C2003C1322F213108F0372F332309F4F9C0DF
S1130C30FA01832F94919883815031968111FACFD0
S1130C408FEF830F90E00196480F591F231B6C937D
S1130C502111E1CF3031F9F2E7C0853061F48EEF34
S1130C608093E800E8EEF0E0808180FFFDCF20680B
S1130C702093E300D9C0893009F035C06111CDC09B
S1130C8020934B011092480110924A018EEF8093F9
S1130C90E80081E02CE731E0C9EED0E0ABEEB0E053
S1130CA00CEE10E06DEE70E08883A9014F5F5F4F9A
S1130CB0F90194919C93992361F0FA014491F8010C
S1130CC04083F901329694912D5F3F4FFB0190834D
S1130CD001C09A018F5F853039F7EAEEF0E08EE1CA
S1130CE080831082A1C0883081F4603809F095C0F7
S1130CF0E8EEF0E0808180FFFDCF80914B0180938E
S1130D00F1008EEF8093E8008FC08132B9F4613A2C
S1130D1009F083C0E8EEF0E0808180FFFDCFECE0D5
S1130D20F1E023E131E0A1EFB0E081918C93E2178F
S1130D30F307D9F78EEF8093E80076C08032D1F4C0
S1130D40613209F06AC0E8EEF0E0808182FFFDCFF5
S1130D50ECE0F1E023E131E0A1EFB0E08C9181938C
S1130D60E217F307D9F7E8EEF0E08BEF80838EEF1C
S1130D7080835AC0823271F4613209F04EC02093EC
S1130D804801E8EEF0E0808180FFFDCF8EEF809394
S1130D90E8004AC081111AC0E8EEF0E0808180FFCB
S1130DA0FDCF623851F4E9EEF0E040838091EB002E
S1130DB085FB882780F9108201C080E0E1EFF0E034
S1130DC0808310828EEF8093E8002EC0982F9D7F41
S1130DD0913019F5623009F5232BF9F44F779FEF21
S1130DE0940F9430D0F49EEF9093E8004093E90080
S1130DF0833021F481E28093EB0016C089E1809373
S1130E00EB0081E090E002C0880F991F4A95E2F759
S1130E10EAEEF0E08083108207C081E28093EB0069
S1130E2003C06C932111F7CEFF91EF91DF91CF9125
S1130E30BF91AF919F918F917F916F915F914F91EE
S1130E403F912F911F910F910F900FBE0F901F9004
S1130E5018950F931F93CF938C010F5F1F4FFC01C5
S1130E60C491CC2371F0CA3019F48DE00E940D05B1
S1130E708C2F0E940D05F801C4910F5F1F4FC11103
S1130E80F2CFCF911F910F910895EF92FF920F939C
S1130E901F93CF93DF93CDB7DEB727970FB6F894A0
S1130EA0DEBF0FBECDBF8E010F5F1F4F27E0F801DD
S1130EB011922A95E9F74AE0B8010E94DA097E0105
S1130EC0F8E0EF0EF11CF80181918F0181110E946D
S1130ED00D050E151F05B9F727960FB6F894DEBF5A
S1130EE00FBECDBFDF91CF911F910F91FF90EF9077
S1130EF008955058BB27AA270E9491070C94E20832
S1130F000E94D40838F00E94DB0820F039F49F3F97
S1130F1019F426F40C94D1080EF4E095E7FB0C9434
S1130F20CB08E92F0E94F30858F3BA176207730736
S1130F308407950720F079F4A6F50C9415090EF4AE
S1130F40E0950B2EBA2FA02D0B01B90190010C01D5
S1130F50CA01A0011124FF27591B99F0593F50F4ED
S1130F60503E68F11A16F040A22F232F342F442745
S1130F70585FF3CF469537952795A795F04053953D
S1130F80C9F77EF41F16BA0B620B730B840BBAF00D
S1130F909150A1F0FF0FBB1F661F771F881FC2F778
S1130FA00EC0BA0F621F731F841F48F4879577958C
S1130FB06795B795F7959E3F08F0B0CF9395880F46
S1130FC008F09927EE0F9795879508950E94FA07E0
S1130FD00C94E2080E94DB0858F00E94D40840F008
S1130FE029F45F3F29F00C94CB0851110C94160995
S1130FF00C94D1080E94F30868F39923B1F35523A4
S113100091F3951B550BBB27AA2762177307840717
S113101038F09F5F5F4F220F331F441FAA1FA9F3AD
S113102035D00E2E3AF0E0E832D091505040E6959B
S1131030001CCAF72BD0FE2F29D0660F771F881FFC
S1131040BB1F261737074807AB07B0E809F0BB0BEF
S1131050802DBF01FF2793585F4F3AF09E3F510503
S113106078F00C94CB080C9416095F3FE4F3983E97
S1131070D4F3869577956795B795F7959F5FC9F7EC
S1131080880F911D9695879597F90895E1E0660F6D
S1131090771F881FBB1F621773078407BA0720F0E6
S11310A0621B730B840BBA0BEE1F88F7E09508954F
S11310B00E945F086894B1110C94160908950E9467
S11310C0FB0888F09F5798F0B92F9927B751B0F0D3
S11310D0E1F0660F771F881F991F1AF0BA95C9F7B8
S11310E014C0B13091F00E941509B1E008950C9438
S11310F01509672F782F8827B85F39F0B93FCCF3EB
S1131100869577956795B395D9F73EF49095809534
S1131110709561957F4F8F4F9F4F0895E89409C054
S113112097FB3EF490958095709561957F4F8F4F16
S11311309F4F9923A9F0F92F96E9BB279395F6952C
S1131140879577956795B795F111F8CFFAF4BB0FAA
S113115011F460FF1BC06F5F7F4F8F4F9F4F16C00E
S1131160882311F096E911C0772321F09EE8872F98
S1131170762F05C0662371F096E8862F70E060E054
S11311802AF09A95660F771F881FDAF7880F9695CD
S1131190879597F9089597F99F6780E870E060E074
S11311A008959FEF80EC089500240A9416161706FC
S11311B018060906089500240A9412161306140644
S11311C005060895092E0394000C11F4882352F0A7
S11311D0BB0F40F4BF2B11F460FF04C06F5F7F4F5F
S11311E08F4F9F4F089557FD9058440F551F59F046
S11311F05F3F71F04795880F97FB991F61F09F3F00
S113120079F087950895121613061406551FF2CF28
S11312104695F1DF08C0161617061806991FF1CF78
S113122086957105610508940895E894BB2766279F
S11312307727CB0197F908950E948E0908F48FEF60
S113124008950E9434090C94E2080E94D40838F0EE
S11312500E94DB0820F0952311F00C94CB080C9429
S1131260D10811240C9416090E94F30870F3959F79
S1131270C1F3950F50E0551F629FF001729FBB2789
S1131280F00DB11D639FAA27F00DB11DAA1F649F25
S11312906627B00DA11D661F829F2227B00DA11DD8
S11312A0621F739FB00DA11D621F839FA00D611D5E
S11312B0221F749F3327A00D611D231F849F600D7F
S11312C0211D822F762F6A2F11249F5750409AF0A8
S11312D0F1F088234AF0EE0FFF1FBB1F661F771F34
S11312E0881F91505040A9F79E3F510580F00C94FF
S11312F0CB080C9416095F3FE4F3983ED4F386952B
S113130077956795B795F795E7959F5FC1F7FE2B9E
S1131310880F911D9695879597F90895990F000860
S1131320550FAA0BE0E8FEEF16161706E807F907B3
S1131330C0F012161306E407F50798F0621B730B4E
S1131340840B950B39F40A2661F0232B242B252BCF
S113135021F408950A2609F4A140A6958FEF811D72
S1131360811D089597FB072E16F4009407D077FD8E
S113137009D00E94C60907FC05D03EF490958195DA
S11313809F4F0895709561957F4F0895AA1BBB1BCD
S113139051E107C0AA1FBB1FA617B70710F0A61B71
S11313A0B70B881F991F5A95A9F780959095BC0192
S11313B0CD010895BB274A3031F4992322F4BDE2CC
S11313C0909581959F4F0C94E609BB27FB01552707
S11313D0AA27880F991FAA1FA41710F0A41B83958E
S11313E05051B9F7A05DAA3308F0A95DA193009705
S11313F079F7B111B1931192CB010C94FF09DC017F
S1131400FC01672F71917723E1F7329704C07C9137
S11314106D9370836291AE17BF07C8F30895F89473
S1051420FFCFF8
S11314220000C03F0000803F0000004000E10000D7
S107143200000800AA
S9030000FC
