:100000000C9455010C9472010C9472010C940E1016
:100010000C9472010C9472010C9472010C94720194
:100020000C9472010C9472010C947E110C94BC110E
:100030000C9472010C9472010C9472010C94720174
:100040000C9472010C9472010C9472010C94720164
:100050000C9472010C9472010C9472010C94720154
:100060000C9472010C9472010C9472010C94720144
:100070000C9472010C9472010C9472010C94720134
:100080000C9472010C9472010C9472010C94720124
:100090000C9472010C9472010C9472010C94720114
:1000A0000C9472010C9472010C947201084AD73BB3
:1000B0003BCE016E84BCBFFDC12F3D6C74319ABD37
:1000C00056833DDA3D00C77F11BED9E4BB4C3E915B
:1000D0006BAAAABE000000803F072C7AA5BA6CC5A7
:1000E00090DA3B9365FC8BBC53F810FD3C56928331
:1000F0004DBD879D3AB63DCBC9BF5BBE73DA0FC914
:100100003F05A84CCDB2D44EB93836A9020C50B92F
:10011000918688083CA6AAAA2ABE000000803F0754
:10012000634236B79BD8A71A39685618AEBAAB5592
:100130008C1D3CB7CC5763BD6DEDFD753EF6177257
:1001400031BF000000803F08000000BE9224491229
:100150003EABAAAA2ABECDCCCC4C3E00000080BE4D
:10016000ABAAAAAA3E00000000BF000000803F002A
:1001700000000000084178D3BB4387D1133D190E1E
:100180003CC3BD4282AD2B3E68EC8276BED98FE186
:10019000A93E4C80EFFFBE01C4FF7F3F000000007E
:1001A00000002064696666200A0020626F745F6147
:1001B0006E676C65200A0020746172676574206147
:1001C0006E676C65200A002074686574615F646501
:1001D00067200A00207967200A00207867200A003B
:1001E000207962200A00207862200A002079200A03
:1001F000002078200A00000100008D021200020099
:10020000004A0243000300004602040103090432CD
:100210000212020309042A02060303090420020849
:100220000803340031003000000006034D003200A6
:10023000000012034A002E002000460069006500FD
:100240006E00650000000403090409024300020176
:1002500000C0320904000001020201000524001060
:1002600001052401010104240206052406000107FA
:1002700005820310004009040100020A0000000783
:10028000050302400000070584024000001201003F
:100290000202000010C0167A0400010102030100EE
:1002A00001C1120180360181360011241FBECFEF3B
:1002B000DAE0DEBFCDBF11E0A0E0B1E0EAE5F5E3B2
:1002C00002C005900D92A830B107D9F721E0A8E04F
:1002D000B1E001C01D92AE34B207E1F70E943B0BC2
:1002E0000C94AB1A0C940000AF92BF92CF92DF92A5
:1002F000EF92FF920F931F93CF93DF93CDB7DEB7AB
:10030000C058D1400FB6F894DEBF0FBECDBFFB0181
:10031000E080F180A281B38104811581C680D780FD
:10032000A084B1842285338544855585668577858B
:10033000FA82E982BC83AB831E830D83D886CF8289
:10034000BA87A987FC86EB861E870D87D88ACF8659
:100350001A8B098BBC8BAB8BFE8AED8AD88ECF8A29
:10036000DA8EC98EBC8FAB8F1E8F0D8FF8A2EF8EE9
:10037000FAA2E9A2BCA3ABA3DEA2CDA218A70FA349
:10038000BAA7A9A7FCA6EBA6DEA6CDA618AB0FA719
:100390001AAB09ABBCABABABDEAACDAAF8AEEFAAE9
:1003A000DAAEC9AEBCAFABAFFEAEEDAE21961FAFBD
:1003B0000EAF21972396FFAEEEAE239725961FAF83
:1003C0000EAF25972796BFAFAEAF27972996DFAE22
:1003D000CEAE29972B96BFAFAEAF2B972D961FAF02
:1003E0000EAF2D972F96FFAEEEAE2F976196DFAE34
:1003F000CEAE619763961FAF0EAF63976596FFAE63
:10040000EEAE65976796BFAFAEAF67976996DFAE02
:10041000CEAE69976B96DFAECEAE6B976D961FAF83
:100420000EAF6D976F96BFAFAEAF6F97A196FFAE51
:10043000EEAEA197A396FFAEEEAEA397A5961FAF23
:100440000EAFA597A796DFAECEAEA797A996BFAF82
:10045000AEAFA997AB96BFAFAEAFAB97AD961FAFA0
:100460000EAFAD97AF96DFAECEAEAF97E196FFAED3
:10047000EEAEE197E3961FAF0EAFE397E596FFAEC2
:10048000EEAEE597E796DFAECEAEE797E996BFAF63
:10049000AEAFE997EB96DFAECEAEEB97ED961FAF22
:1004A0000EAFED97EF96FFAEEEAEEF97C158DF4F70
:1004B000B983A883CF57D040CF57DF4FF982E88266
:1004C000C158D040CD57DF4FD982C882C358D040E1
:1004D000CB57DF4FB983A883C558D040C957DF4FEA
:1004E00019830883C758D040C757DF4FB983A88303
:1004F000C958D040C557DF4FD982C882CB58D040A9
:10050000C357DF4FF982E882CD58D040C157DF4F43
:1005100019830883CF58D040CF56DF4F1983088303
:10052000C159D040CD56DF4FD982C882C359D0407F
:10053000CB56DF4FB983A883C559D040C956DF4F8A
:10054000F982E882C759D040C756DF4FD982C882A6
:10055000C959D040C556DF4FF982E882CB59D04007
:10056000C356DF4FB983A883CD59D040C156DF4F62
:1005700019830883CF59D040CF55DF4FF982E882E5
:10058000C15AD040CD55DF4FD982C882C35AD0401E
:10059000CB55DF4F19830883C55AD040C955DF4F6B
:1005A000B983A883C75AD040C755DF4FB983A88302
:1005B000C95AD040C555DF4FD982C882CB5AD040E6
:1005C000C355DF4F19830883CD5AD040C155DF4F43
:1005D000F982E882CF5AD040CF54DF4F1983088385
:1005E000C15BD040CD54DF4FD982C882C35BD040BD
:1005F000CB54DF4FF982E882C55BD040C954DF4F4E
:10060000B983A883C75BD040C754DF4FD982C88263
:10061000C95BD040C554DF4FF982E882CB5BD04044
:10062000C354DF4F19830883CD5BD040C154DF4FE3
:10063000B983A883CF5BD040CF53DF4FB982A88264
:10064000C15CD040CD53DF4F39832883C35CD04099
:10065000CB53DF4F59834883C55CD040C953DF4F2C
:1006600079836883C75CD040C753DF4F39832883C1
:10067000C95CD040C553DF4FB982A882CB5CD04063
:10068000C353DF4F59834883CD5CD040C153DF4F04
:1006900079836883CF5CD040CF52DF4F5983488342
:1006A000C15DD040CD52DF4F39832883C35DD04038
:1006B000CB52DF4FB982A882C55DD040C952DF4F0F
:1006C00079836883C75DD040C752DF4F79836883E1
:1006D000C95DD040C552DF4F39832883CB5DD04000
:1006E000C352DF4F59834883CD5DD040C152DF4FA5
:1006F000B982A882CF5DD040CF51DF4FB982A882A6
:10070000C15ED040CD51DF4F39832883C35ED040D6
:10071000CB51DF4F79836883C55ED040C951DF4F2D
:1007200059834883C75ED040C751DF4F3983288340
:10073000C95ED040C551DF4FB982A882CB5ED040A0
:10074000C351DF4F79836883CD5ED040C151DF4F05
:1007500059834883CF5ED040CF50DF4F59834883C1
:10076000C15FD040CD50DF4F39832883C35FD04075
:10077000CB50DF4F79836883C55FD040C950DF4FCE
:10078000B982A882C75FD040C750DF4F79836883A2
:10079000C95FD040C550DF4F39832883CB5FD0403D
:1007A000C350DF4FB982A882CD5FD040C150DF4F28
:1007B00059834883CF5FD040CF5FDE4FB982A88294
:1007C000C150D140CD5FDE4F59834883C350D140E3
:1007D000CB5FDE4F39832883C550D140C95FDE4FE0
:1007E00079836883C750D140C75FDE4F3983288340
:1007F000C950D140C55FDE4F59834883CB50D140AB
:10080000C35FDE4FB982A882CD50D140C15FDE4FB9
:1008100079836883CF50D140CF5EDE4F59834883C0
:10082000C151D140CD5EDE4FB982A882C351D140C3
:10083000CB5EDE4F39832883C551D140C95EDE4F80
:1008400079836883C751D140C75EDE4F798368835F
:10085000C951D140C55EDE4F59834883CB51D14049
:10086000C35EDE4F39832883CD51D140C15EDE4F58
:10087000B982A882CF51D140CF5DDE4FB982A88224
:10088000C152D140CD5DDE4F59834883C352D14020
:10089000CB5DDE4F79836883C552D140C95DDE4FA1
:1008A00039832883C752D140C75DDE4F39832883FF
:1008B000C952D140C55DDE4F59834883CB52D140E8
:1008C000C35DDE4F79836883CD52D140C15DDE4F79
:1008D000B982A882CF52D140CF5CDE4F5983488382
:1008E000C153D140CD5CDE4FB982A882C353D14001
:1008F000CB5CDE4F79836883C553D140C95CDE4F42
:1009000039832883C753D140C75CDE4F798368831E
:10091000C953D140C55CDE4F59834883CB53D14086
:10092000C35CDE4FB982A882CD53D140C15CDE4F9B
:1009300039832883CF53D140CF5BDE4FB982A88261
:10094000C154D140CD5BDE4F79836883C354D1401D
:10095000CB5BDE4F39832883C554D140C95BDE4F62
:1009600059834883C754D140C75BDE4F39832883FE
:10097000C954D140C55BDE4F79836883CB54D140E5
:10098000C35BDE4FB982A882CD54D140C15BDE4F3C
:1009900059834883CF54D140CF5ADE4F598348837F
:1009A000C155D140CD5ADE4F79836883C355D140BC
:1009B000CB5ADE4F39832883C555D140C95ADE4F03
:1009C000B982A882C755D140C75ADE4F7983688360
:1009D000C955D140C55ADE4FB982A882CB55D14006
:1009E000C35ADE4F39832883CD55D140C15ADE4FDB
:1009F00059834883CF55D140CF59DE4FB982A88261
:100A0000C156D140CD59DE4F79836883C356D1405A
:100A1000CB59DE4F59834883C556D140C959DE4F63
:100A200039832883C756D140C759DE4F398328837D
:100A3000C956D140C559DE4F79836883CB56D14022
:100A4000C359DE4F59834883CD56D140C159DE4F3B
:100A5000B982A882CF56D140CF58DE4F5983488300
:100A6000C157D140CD58DE4F79836883C357D140F9
:100A7000CB58DE4FB982A882C557D140C958DE4F46
:100A800039832883C757D140C758DE4F798368839D
:100A9000C957D140C558DE4FB982A882CB57D14043
:100AA000C358DE4F59834883CD57D140C158DE4FDC
:100AB00039832883CF57D140880F991F880F991FFA
:100AC000880F991FA1E0B0E0AC0FBD1FA80FB91FA0
:100AD0002D913C911197EEE3F1E031832083129642
:100AE0002D913C9113973383228314962D913C9141
:100AF00015973583248316962D913C91179737834C
:100B00002683A1ECB0E0AC0FBD1FA80FB91F8D91DB
:100B10009C9111979187808712968D919C91139744
:100B20009387828714968D919C91159795878487DA
:100B300016968D919C91179797878687CF01C058FD
:100B4000DE4F0FB6F894DEBF0FBECDBFDF91CF9161
:100B50001F910F91FF90EF90DF90CF90BF90AF90DB
:100B600008958F929F92AF92BF92CF92DF92EF92B1
:100B7000FF920F931F93CF93DF93EB018901841BA7
:100B8000950BBC01990F880B990B0E94DB166B012A
:100B90007C01CE01801B910BBC01990F880B990B36
:100BA0000E94DB164B015C01A7019601C701B6014B
:100BB0000E941E186B017C01A5019401C501B401BE
:100BC0000E941E189B01AC01C701B6010E948C1542
:100BD00020E030E040E05FE30E948B18DF91CF918E
:100BE0001F910F91FF90EF90DF90CF90BF90AF904B
:100BF0009F908F9008952F923F924F925F926F92A5
:100C00007F928F929F92AF92BF92CF92DF92EF929C
:100C1000FF920F931F93CF93DF93CDB7DEB7E89783
:100C20000FB6F894DEBF0FBECDBF9EAB8DABCB0130
:100C3000BA0120E030E048EE51E40E9431166B0129
:100C40007C0120E030E040E551E40E941E186D8FE9
:100C50007E8F8F8F98A320E030E048EE51E4C701EB
:100C6000B6010E941E1869A37AA38BA39CA320E05F
:100C700030E040E851E4C701B6010E941E186DA3A0
:100C80007EA38FA398A720E030E040ED51E4C70198
:100C9000B6010E941E1869A77AA78BA79CA726EF0A
:100CA00038EA48EB51E4C701B6010E941E186DA74F
:100CB0007EA78FA798AB20E030E040EA51E4C7015F
:100CC000B6010E941E1869AB7AAB8BAB9CAB612C52
:100CD000712C80E090E4ACE1B6E4898F9A8FAB8F01
:100CE000BC8F63016DA97EA9C6010E947401FC013D
:100CF000E080F1808280938064807580A680B780D8
:100D000000851185A285B385BE83AD834484558457
:100D1000268437849D01A401B801C7010E94B10552
:100D200069877A878B879C879201A301B801C701E5
:100D30000E94B1056D877E878F87988B9101A501F1
:100D4000B801C7010E94B105698B7A8B8B8B9C8B94
:100D50009201A3016D817E81C4010E94B1056D8B5A
:100D60007E8B8F8B988F9101A5016D817E81C4014F
:100D70000E94B1056D837E838F8398879101A501C1
:100D8000B201C3010E94B1054B015C012D8D3E8D66
:100D90004F8D58A169857A858B859C850E948B151E
:100DA0000E94A3168B01772324F400271127061B2A
:100DB000170B29A13AA14BA15CA16D857E858F857A
:100DC00098890E948B150E94A3169B01772324F417
:100DD00022273327261B370B020F131F2DA13EA1FD
:100DE0004FA158A569897A898B899C890E948B15A6
:100DF0000E94A3169B01772324F422273327261B66
:100E0000370B020F131F29A53AA54BA55CA56D89C9
:100E10007E898F89988D0E948B150E94A3169B0155
:100E2000772324F422273327261B370B020F131FA7
:100E30002DA53EA54FA558A96D817E818F819885EE
:100E40000E948B150E94A3169B01772324F422276E
:100E50003327261B370B020F131F29A93AA94BA9C9
:100E60005CA9C501B4010E948B150E94A3169B01C9
:100E7000772324F422273327261B370BB801620F70
:100E8000731F072E000C880B990B0E94DB166983D9
:100E90007A838B839C8369817A818B819C81298D64
:100EA0003A8D4B8D5C8D0E942716882354F48981DE
:100EB0009A81AB81BC81898F9A8FAB8FBC8FCFAA6F
:100EC000D8AE9FEFC91AD90AA8E1CA16D10409F011
:100ED00009CF8FA998ADE8960FB6F894DEBF0FBE84
:100EE000CDBFDF91CF911F910F91FF90EF90DF90D9
:100EF000CF90BF90AF909F908F907F906F905F90BA
:100F00004F903F902F9008952F923F924F925F9273
:100F10006F927F928F929F92AF92BF92CF92DF9209
:100F2000EF92FF920F931F93CF93DF9300D000D0E7
:100F3000CDB7DEB7962EA72EB82EC92E29013A01BD
:100F4000E982FA820B831C8320E030E0A901C3010F
:100F5000B2010E94111888235CF020E030E0A90162
:100F6000C801B7010E94111888230CF05CC009C0A9
:100F700020E030E0A901C301B2010E9411188823CA
:100F800064F020E030E0A90169817A818B819C8145
:100F90000E94271688230CF44BC020E030E0A90102
:100FA000C301B2010E9427168823D4F420E030E068
:100FB000A90169817A818B819C810E941118882303
:100FC000C4F020E030E044E353E4692D7A2D8B2D0A
:100FD0009C2D0E948C15D62E272E382E892E2CC0A3
:100FE00020E030E0A901C301B2010E942716882346
:100FF0001CF520E030E0A90169817A818B819C8118
:101000000E9427168823C4F420E030E044E353E430
:10101000692D7A2D8B2D9C2D0E948C15D62E272E76
:10102000382E892E09C0D92C2A2C3B2C8C2C04C09C
:10103000D92C2A2C3B2C8C2C6D2D722D832D982D88
:101040000F900F900F900F90DF91CF911F910F9104
:10105000FF90EF90DF90CF90BF90AF909F908F90D8
:101060007F906F905F904F903F902F9008954F9298
:101070005F926F927F928F929F92AF92BF92CF9228
:10108000DF92EF92FF920F931F93CF93DF93CDB731
:10109000DEB7A4970FB6F894DEBF0FBECDBF2B010D
:1010A0003C0129833A834B835C83E98EFA8E0B8F54
:1010B0001C8F9B01AC0160E070E080E094E40E9432
:1010C0008B1569877A878B879C87A3019201C8015A
:1010D000B7010E948B156D877E878F87988B29813A
:1010E0003A814B815C8160E070E080EC93E40E9487
:1010F0008B15698B7A8B8B8B9C8B29813A814B81E9
:101100005C81C601B5010E948B156D8B7E8B8F8B28
:10111000988F2D853E854F85588969857A858B8581
:101120009C850E941E186D837E838F8398872D89EE
:101130003E894F89588D69897A898B899C890E945B
:101140001E189B01AC016D817E818F8198850E9464
:101150008C1569A37AA38BA39CA369817A818B8167
:101160009C810E94A31669837A838B839C83C3012D
:10117000B2010E94A3166D837E838F839887298195
:101180003A814D815E8160E871E080E092E00E94EA
:10119000B1056D8F7E8F8F8F98A3C601B5010E9418
:1011A000A3162B013C01C801B7010E94A316DC0164
:1011B000CB0129813A814D815E81B2010E94B10546
:1011C0009B01AC016D8D7E8D8F8D98A10E941E18A4
:1011D0009B01AC0169A17AA18BA19CA10E9431164F
:1011E0000E947A152B013C0129853A854B855C8547
:1011F00069897A898B899C890E9431160E94F81529
:101200006B017C012D853E854F8558896D897E89CE
:101210008F89988D0E9431160E94F8154B015C0150
:1012200020EE3EE245E652E4C301B2010E941E18E0
:101230002B013C0120EE3EE245E652E4C701B60137
:101240000E941E18E988FA880B891C8929853A852D
:101250004B855C850E94840769837A838B839C839A
:1012600020EE3EE245E652E4C501B4010E941E189C
:10127000ED88FE880F89188D2D853E854F8558890C
:101280000E9484074B015C019B01AC0169817A815A
:101290008B819C810E948B156B017C0120E030E0EA
:1012A00044E353E40E94271688234CF420E030E006
:1012B000A901C701B6010E941118181694F120E087
:1012C00030E044E353ECC701B6010E941118181630
:1012D00074F420E030E0A901C701B6010E9427168E
:1012E00088232CF477FA709477F870941AC020E071
:1012F00030E044E353E4C701B6010E941118181608
:1013000084F420E030E044E353E469817A818B8106
:101310009C810E941118181624F477FA709477F8BB
:101320007094ECE1F1E040825182628273828482A7
:101330009582A682B782CF01A4960FB6F894DEBF3D
:101340000FBECDBFDF91CF911F910F91FF90EF9016
:10135000DF90CF90BF90AF909F908F907F906F90D5
:101360005F904F9008954F925F926F927F928F920D
:101370009F92AF92BF92CF92DF92EF92FF92CF9364
:10138000DF93CDB7DEB728970FB6F894DEBF0FBE58
:10139000CDBF6D837E838F83988729833A834B8368
:1013A0005C8320E030E044EB52EC69817A818B81F0
:1013B0009C810E94271688230CF04CC020E030E06E
:1013C00044E353EC69817A818B819C810E941118DE
:1013D00018160CF03FC020E030E044EB52E4698185
:1013E0007A818B819C810E948C154B015C01B7FA3C
:1013F000B094B7F8B09425E33AEF4EE85CE3C5014A
:10140000B4010E941E186B017C010E942C162D81D4
:101410003E814F8158850E941E189B01AC0160E0FF
:1014200070E086EE92E40E948B152B013C01C7010F
:10143000B6010E94DB182D813E814F8158850E94A4
:101440001E1820E030E040E752E40E948C156B014A
:101450007C01EDC020E030E0A90169817A818B81B7
:101460009C810E94271688230CF045C020E030E0C4
:1014700044EB52EC69817A818B819C810E94111826
:101480001816CCF589809A80AB80BC80B7FAB094EE
:10149000B7F8B09425E33AEF4EE85CE3C501B40138
:1014A0000E941E186B017C010E94DB182D813E8179
:1014B0004F8158850E941E189B01AC0160E070E0CE
:1014C00086EE92E40E948B152B013C01C701B60108
:1014D0000E942C162D813E814F8158850E941E1836
:1014E0009B01AC0160E070E080E792E40E948B1504
:1014F0006B017C019CC020E030E0A90169817A8108
:101500008B819C810E94111818160CF041C020E0BC
:1015100030E044EB52E469817A818B819C810E94A6
:1015200027168823ACF525E33AEF4EE85CE36981A2
:101530007A818B819C810E941E186B017C010E9424
:10154000DB182D813E814F8158850E941E1820E0B6
:1015500030E046EE52E40E948C152B013C01C7019D
:10156000B6010E942C162D813E814F8158850E9424
:101570001E189B01AC0160E070E080E792E40E94DD
:101580008B156B017C0189809A80AB80BC804FC039
:1015900020E030E044EB52E469817A818B819C81C8
:1015A0000E94111818160CF042C020E030E044E30D
:1015B00053E469817A818B819C810E94271688235C
:1015C000B4F520E030E044EB52E469817A818B810C
:1015D0009C810E948B154B015C0125E33AEF4EE89C
:1015E0005CE30E941E186B017C010E942C162D8169
:1015F0003E814F8158850E941E1820E030E046EE63
:1016000052E40E948C152B013C01C701B6010E94D7
:10161000DB182D813E814F8158850E941E1820E0E5
:1016200030E040E752E40E948C156B017C01E2E35C
:10163000F1E04082518262827382C482D582E68266
:10164000F78280869186A286B386CF0128960FB650
:10165000F894DEBF0FBECDBFDF91CF91FF90EF902A
:10166000DF90CF90BF90AF909F908F907F906F90C2
:101670005F904F900895CF93DF93CDB7DEB7EA9791
:101680000FB6F894DEBF0FBECDBFFE01719688E1A4
:10169000DF011D928A95E9F7E1E6F0E080E88083BA
:1016A00010820E943F100E940A114AE06CE581E01E
:1016B0000E945010E1E9F0E080818B7F808380817F
:1016C0008D7F808380818160808380818061808341
:1016D000808188608083E0E9F0E08081826080839F
:1016E00080818E7F808380818068808380818F7BF2
:1016F00080833E980E94C61378941AA619A6CE013C
:1017000041960E94E71489899A899A8389832F894F
:10171000388D3C832B832D8D3E8D3E832D832BA1D5
:101720003CA138872F832B893C893A872987298DCB
:101730003A8D3C872B872F8D38A13E872D872DA191
:101740003EA1388B2F870E945B1381EF91E00E94AE
:101750003F138B899C890E945B138CEE91E00E9461
:101760003F1389859A858F3F934049F28B859C85ED
:101770008F3F934021F28D859E858F3F934009F4E2
:10178000BECF8F8598898F3F934009F4B8CF40E052
:1017900050E068EC72E4CE0101960E94FB05BE01A8
:1017A0006F5F7F4F0E947401FC018081918198AB33
:1017B0008FA764807580A085B185BAABA9AB44843E
:1017C00055841C01260C371C33201CF4BFEF2B1A48
:1017D0003B0A3594279489A89AA8840C951C9920D3
:1017E0001CF4EFEF8E1A9E0A95948794B201052C93
:1017F000000C880B990B0E94DB165B016C01B30196
:10180000072C000C880B990B0E94DB166BAB7CAB92
:101810008DAB9EABB401092C000C880B990B0E9478
:10182000DB166FAB78AF89AF9AAFB101032C000C18
:10183000880B990B0E94DB16EBA8FCA80DA91EA92A
:101840002FA938AD49AD5AAD0E9437087C019401EB
:10185000A10160E871E080E092E00E94B1054B01D7
:101860005C019201A30169A97AA98FA598A90E9498
:10187000B1059B01AC01D701CD90DD90ED90FC90BE
:1018800060E070E088EE91E40E943116A5019401B9
:101890000E941E18A70196010E94B3095C01609185
:1018A00020017091210180912201909123010E94D9
:1018B000A316CB01865A9F4F68E671E00E944E1A2C
:1018C0008C549F4F68E671E00E944E1A1C01F5018E
:1018D000C080D180E280F38044805580668077802C
:1018E00020E030E046EE52E4C701B6010E94111834
:1018F000181634F489A59AA5892B09F451C30FC091
:1019000020E030E046EE52E4C701B6010E942716FF
:1019100018162CF0A9A5BAA5AB2B09F45FC3C70113
:10192000B6010E94A316CB010E945B1386EE91E0E4
:101930000E943F13C301B2010E94A316CB010E9473
:101940005B1380EE91E00E943F13E9A5FAA5E13018
:10195000F10549F0329759F41BA61CA6F6E6FDA73F
:1019600023E42EA704C01BA61CA61DA61EA6A70125
:1019700096016BA57CA58DA59EA50E94271618161D
:101980000CF4A9C020E030E040E752E4C301B2010A
:101990000E94111818160CF04FC020E030E040E70C
:1019A00052E4C301B2010E948B154B015C012BA5CF
:1019B0003CA54DA55EA5C701B6010E948B159B01F4
:1019C000AC01C501B4010E9431160E94F815609364
:1019D0002401709325018093260190932701609143
:1019E000240170912501809126019091270120EE1C
:1019F0003EE245E652E40E941E1860932E01709369
:101A00002F01809330019093310120912E0130916C
:101A10002F01409130015091310160E070E084EB82
:101A200092E40E948B1560931801709319018093C2
:101A30001A0190931B01F7C0A301920160E070E0CE
:101A400080E792E40E948B154B015C012BA53CA51D
:101A50004DA55EA5C701B6010E948B159B01AC0187
:101A6000C501B4010E9431160E94F815609324014B
:101A700070932501809326019093270160912401A2
:101A800070912501809126019091270120EE3EE280
:101A900045E652E40E941E1860932E0170932F01B8
:101AA000809330019093310160912E0170912F014C
:101AB000809130019091310120E030E044EB52E41C
:101AC0000E948C15609318017093190180931A017C
:101AD00090931B01A8C020E030E040E752E4C3012E
:101AE000B2010E94111818160CF04FC020E030E02F
:101AF00040E752E4C301B2010E948B154B015C0127
:101B0000A70196016BA57CA58DA59EA50E948B15AE
:101B10009B01AC01C501B4010E9431160E94F81569
:101B200060932401709325018093260190932701EF
:101B300060912401709125018091260190912701E7
:101B400020EE3EE245E652E40E941E1860932E010C
:101B500070932F01809330019093310160912E0199
:101B600070912F01809130019091310120E030E09F
:101B700047E853E40E948C15609318017093190193
:101B800080931A0190931B014EC0A301920160E063
:101B900070E080E792E40E948B154B015C01A70185
:101BA00096016BA57CA58DA59EA50E948B159B011A
:101BB000AC01C501B4010E9431160E94F815609372
:101BC0002401709325018093260190932701609151
:101BD000240170912501809126019091270120EE2A
:101BE0003EE245E652E40E941E1860932E01709377
:101BF0002F01809330019093310120912E0130917B
:101C00002F01409130015091310160E070E087E890
:101C100093E40E948B1560931801709319018093CF
:101C20001A0190931B018090180190901901A090C7
:101C30001A01B0901B01B101032C000C880B990B09
:101C40000E94DB16A50194010E948B1560932A0166
:101C500070932B0180932C0190932D0160912A01A8
:101C600070912B0180912C0190912D0120E030E0AA
:101C700044E353E40E942716882304F560912A0167
:101C800070912B0180912C0190912D0120E030E08A
:101C9000A9010E94111888238CF080912A0190914B
:101CA0002B01A0912C01B0912D0180932A019093DA
:101CB0002B01A0932C01B0932D0156C060912A01F5
:101CC00070912B0180912C0190912D0120E030E04A
:101CD00044E353EC0E9427168823BCF460912A0148
:101CE00070912B0180912C0190912D0120E030E02A
:101CF00044EB53E40E948C1560932A0170932B01EE
:101D000080932C0190932D012FC060912A01709136
:101D10002B0180912C0190912D0120E030E0A90150
:101D20000E942716882304F560912A0170912B01E7
:101D300080912C0190912D0120E030E044E353ECA0
:101D40000E941118882384F080912A0190912B0120
:101D5000A0912C01B0912D0180932A0190932B0129
:101D6000A0932C01B0932D016BA57CA58DA59EA5FC
:101D70000E94A316CB010E945B138AED91E00E94A2
:101D80003F138CE390E00E945B1384ED91E00E948E
:101D90003F1360912E0170912F018091300190913D
:101DA00031010E94A316CB010E945B1387EC91E0E6
:101DB0000E943F13609118017091190180911A01DE
:101DC00090911B010E94A316CB010E945B1387EB2D
:101DD00091E00E943F13C1010E945B138AEA91E0E7
:101DE0000E943F1360912A0170912B0180912C0178
:101DF00090912D010E94A316CB010E945B1382EAF1
:101E000091E00E943F1389A59AA5892B71F120E0EA
:101E100030E040EA51E4C701B6010E94271688234A
:101E2000DCF420E030E040E252E4C301B2010E9461
:101E300011181816A4F4EE24E394F12C20E030E0FD
:101E400040EA52E4C301B2010E94271688230CF035
:101E5000E12C8E2D9F2D05C080E090E002C080E037
:101E600090E090932901809328013E9AE0E1F7E207
:101E7000A6E9B0E01196FC93EE9360912A0170916F
:101E80002B0180912C0190912D0120E030E040E267
:101E900051E40E9411188823B4F080912801909198
:101EA0002901892B81F46E9A76986A9A729AECEAE3
:101EB000FDE0A8E9B0E01196FC93EE93229A2A9AED
:101EC0003F9847981CCC60912A0170912B0180911A
:101ED0002C0190912D0120E030E040E251EC0E9475
:101EE00027161816B4F08091280190912901892BAA
:101EF00081F46E9A76986A9A729AECEAFDE0A8E903
:101F0000B0E01196FC93EE93229A2A9A3F9A479A50
:101F1000F6CB60912A0170912B0180912C01909158
:101F20002D0120E030E040E251E40E942716882392
:101F300084F060912A0170912B0180912C01909185
:101F40002D0120E030E040E251EC0E9411181816FB
:101F5000B4F48091280190912901892B81F4ECEA55
:101F6000FDE0A8E9B0E01196FC93EE936A9A7298AE
:101F70006E9A769A22982A983F984798C0CB6E9A84
:101F800076986A9A7298A8E9B0E011961C921E920F
:101F90006A9A729A3E9822982A983F984798AFCBAF
:101FA000C701B6010E94A316CB010E945B1386EE07
:101FB00091E00E943F13C301B2010E94A316CB011E
:101FC0000E945B1380EE91E00E943F13B1E0B9A73D
:101FD0001AA61BA61CA61DA61EA6C9CCC701B60123
:101FE0000E94A316CB010E945B1386EE91E00E9433
:101FF0003F13C301B2010E94A316CB010E945B13E1
:1020000080EE91E00E943F13E2E0E9A71AA61BA62A
:102010001CA6F6E6FDA723E42EA7A9CC1F920F92DB
:102020000FB60F9211242F933F934F935F936F93AB
:102030007F938F939F93AF93BF93EF93FF936AE048
:1020400088E091E00E94A61080910801813A31F465
:1020500081E090E09093130180931201FF91EF9142
:10206000BF91AF919F918F917F916F915F914F91B0
:102070003F912F910F900FBE0F901F901895589A77
:10208000599A5A9A8CE08093B800E9E6F0E0808192
:102090008062808380818F7E8083EA9A789408951D
:1020A0001F93CF93DF93182FD62FC42F0E943F107A
:1020B00094EA9093BC00ECEBF0E090819923ECF76C
:1020C00090E59093BB0094E89093BC00ECEBF0E0BB
:1020D00090819923ECF79091B900987F903229F480
:1020E00084E98093BC0080E02DC081E08093BB0038
:1020F00084E88093BC00ECEBF0E090819923ECF74E
:102100001093BB0084E88093BC00ECEBF0E080818E
:102110008823ECF7D093BB0084E88093BC00ECEB01
:10212000F0E080818823ECF7C093BB0084E88093C3
:10213000BC00ECEBF0E080818823ECF784E980932D
:10214000BC0081E0DF91CF911F910895CF93DF9381
:102150009C0184EA8093BC00ECEBF0E09081992331
:10216000ECF781E58093BB0084E88093BC00ECEB46
:10217000F0E090819923ECF78091B900887F883452
:1021800029F484E98093BC0080E041C084EC809312
:10219000BC00ECEBF0E090819923ECF74091BB00A0
:1021A000461309C0842F90E001971816190644F0D1
:1021B00040E050E01AC084E98093BC0080E027C072
:1021C000D90150E041505109B901640F751FECEB82
:1021D000F0E084ECCBEBD0E0808390819923ECF7A6
:1021E00098819D93A617B707B9F784E88093BC0040
:1021F000ECEBF0E090819923ECF78091BB00F901C2
:10220000E40FF51F808384E98093BC0081E0DF91B7
:10221000CF91089581E08093D70080EA8093D80021
:1022200082E189BD09B400FEFDCF80E98093D8002A
:102230001092E00010921701109214018CE080932C
:10224000E20078940895CF93DF939091170199233A
:1022500009F44CC09FB7F89424E02093E900209142
:102260001501222349F02091E80025FD03C09FBFFE
:102270008FEF41C0109215013091E400375E20913C
:10228000E80025FD24C09FBF9091E400931781F0E2
:1022900090911701992361F1A9EEB0E044E0E8EED6
:1022A000F0E0C4EED0E00DC09FBF9881931305C04D
:1022B00081E0809315018FEF1EC090911701992343
:1022C000C9F09FB7F8944C93208125FFEDCF809300
:1022D000F1008091E80085FD03C08AE38093E80067
:1022E00085E0809316019FBF80E005C08FEF03C09B
:1022F0008FEF01C08FEFDF91CF9108951F920F9262
:102300000FB60F9211248F939F93EF93FF93E1EEFB
:10231000F0E08081108283FF11C01092E90091E00B
:102320009093EB001092EC0092E19093ED0098E016
:102330009093F000109217011092140182FF13C0C5
:1023400080911701882379F080911601882359F034
:10235000815080931601811106C084E08093E900CA
:102360008AE38093E800FF91EF919F918F910F9006
:102370000FBE0F901F9018951F920F920FB60F92DD
:1023800011240F931F932F933F934F935F936F935A
:102390007F938F939F93AF93BF93CF93DF93EF93ED
:1023A000FF931092E9008091E80083FF4CC1E1EFB8
:1023B000F0E0608180812081908130E0392B408184
:1023C000908150E0592B7081C08192EF9093E8008A
:1023D000863009F058C004C081E28093EB003AC116
:1023E00066E086EF91E0FC01A591B4912A173B07C6
:1023F00011F0079623C0FC013296A591B4914A17BB
:102400005B0711F007961AC0FC0134964591549170
:10241000FC0136962491872F90E09C2B8F3F9105ED
:1024200019F010F08FEF90E0821708F4282FA8EE33
:10243000B0E070E16EEFC1EFD0E003C0615099F6FB
:10244000CBCF8C91982F9570E1F382FD03C1322F91
:10245000213108F0372F332309F4F9C0FA01832F13
:1024600094919883815031968111FACF8FEF830F29
:1024700090E00196480F591F231B6C932111E1CF67
:102480003031F9F2E7C0853061F48EEF8093E800D7
:10249000E8EEF0E0808180FFFDCF20682093E3002C
:1024A000D9C0893009F035C06111CDC02093170122
:1024B00010921401109216018EEF8093E80081E0D3
:1024C0002FE932E0C9EED0E0ABEEB0E00CEE10E068
:1024D0006DEE70E08883A9014F5F5F4FF901949121
:1024E0009C93992361F0FA014491F8014083F9012A
:1024F000329694912D5F3F4FFB01908301C09A016A
:102500008F5F853039F7EAEEF0E08EE1808310824C
:10251000A1C0883081F4603809F095C0E8EEF0E0A1
:10252000808180FFFDCF809117018093F1008EEFB5
:102530008093E8008FC08132B9F4613A09F083C01A
:10254000E8EEF0E0808180FFFDCFE0E0F1E027E001
:1025500031E0A1EFB0E081918C93E217F307D9F756
:102560008EEF8093E80076C08032D1F4613209F0BA
:102570006AC0E8EEF0E0808182FFFDCFE0E0F1E0AC
:1025800027E031E0A1EFB0E08C918193E217F307EF
:10259000D9F7E8EEF0E08BEF80838EEF80835AC0AE
:1025A000823271F4613209F04EC020931401E8EEDA
:1025B000F0E0808180FFFDCF8EEF8093E8004AC07D
:1025C00081111AC0E8EEF0E0808180FFFDCF623813
:1025D00051F4E9EEF0E040838091EB0085FB882721
:1025E00080F9108201C080E0E1EFF0E0808310828A
:1025F0008EEF8093E8002EC0982F9D7F913019F5C3
:10260000623009F5232BF9F44F779FEF940F943044
:10261000D0F49EEF9093E8004093E900833021F4DA
:1026200081E28093EB0016C089E18093EB0081E0AA
:1026300090E002C0880F991F4A95E2F7EAEEF0E0B9
:102640008083108207C081E28093EB0003C06C930B
:102650002111F7CEFF91EF91DF91CF91BF91AF9113
:102660009F918F917F916F915F914F913F912F91AA
:102670001F910F910F900FBE0F901F9018950F9301
:102680001F93CF938C010F5F1F4FFC01C491CC238C
:1026900071F0CA3019F48DE00E9423118C2F0E9432
:1026A0002311F801C4910F5F1F4FC111F2CFCF91D9
:1026B0001F910F910895EF92FF920F931F93CF9365
:1026C000DF93CDB7DEB727970FB6F894DEBF0FBE06
:1026D000CDBF8E010F5F1F4F27E0F80111922A95A1
:1026E000E9F74AE0B8010E94761A7E01F8E0EF0EA1
:1026F000F11CF80181918F0181110E9423110E15A7
:102700001F05B9F727960FB6F894DEBF0FBECDBFF1
:10271000DF91CF911F910F91FF90EF90089520E0EE
:1027200030E0ECEBF0E08081882334F02F5F3F4F06
:10273000293E83E03807B9F781E0283E334009F4A9
:1027400080E008958093BB0084E88093BC000E94E1
:102750008F13882319F08091B900887F0895CF9353
:10276000C82F94EA9093BC000E948F13882361F0D5
:102770008C2F880F0E94A213803229F484E9809361
:10278000BC0080E001C081E0CF9108950E943F101D
:1027900088E50E94AF13882309F4CDC080E30E942E
:1027A000A213882309F4C9C081E00E94A2138823E0
:1027B00009F4C5C084E98093BC0083EC99E00197DB
:1027C000F1F700C0000088E50E94AF13882309F4E8
:1027D000B8C080E00E94A213882309F4B4C080E04E
:1027E0000E94A213882309F4B0C080E00E94A213C3
:1027F000882309F4ACC080E00E94A213882309F466
:10280000A8C080E00E94A213882309F4A4C080E03D
:102810000E94A213882309F4A0C080E00E94A213A2
:10282000882309F49CC080E90E94A213882309F43C
:1028300098C084E98093BC0083EC99E00197F1F79C
:1028400000C0000088E50E94AF13882309F48BC004
:1028500087E00E94A213882309F487C080E00E94C9
:10286000A213882309F483C081E40E94A213882361
:1028700009F47FC084E98093BC0083EC99E0019760
:10288000F1F700C0000088E50E94AF13882309F427
:1028900072C08AE10E94A213882309F46EC080E40A
:1028A0000E94A213882309F46AC080E00E94A21348
:1028B000882309F466C084E98093BC0083EC99E026
:1028C0000197F1F700C0000088E50E94AF1388234C
:1028D00009F459C083E30E94A213882309F455C068
:1028E00083E00E94A213882309F451C084E98093F5
:1028F000BC0083EC99E00197F1F700C0000088E587
:102900000E94AF13882309F444C080E30E94A213FD
:10291000882309F440C088E00E94A2138823E9F1CB
:1029200084E98093BC0083EC99E00197F1F700C043
:10293000000081E0089580E0089580E0089580E03F
:10294000089580E0089580E0089580E0089580E093
:10295000089580E0089580E0089580E0089580E083
:10296000089580E0089580E0089580E0089580E073
:10297000089580E0089580E0089580E0089580E063
:10298000089580E0089580E0089580E0089580E053
:10299000089580E0089580E0089580E00895CF9341
:1029A000C82F84EA8093BC000E948F13882369F0AB
:1029B0008C2F880F8F5F0E94A213883429F484E93A
:1029C0008093BC0080E001C081E0CF9108950F9317
:1029D0001F93CF93DF93CDB7DEB760970FB6F89410
:1029E000DEBF0FBECDBF8C01FE01319680E1DF015D
:1029F0001D928A95E9F788E50E94AF13882309F4B0
:102A000069C086E30E94A213882309F465C084E9A3
:102A10008093BC00B8E0BA95F1F7000088E50E9409
:102A2000CF14882309F45AC0BE016F5F7F4FAE01F7
:102A3000405F5F4FECEBF0E084EC2BEB30E0808309
:102A400090819923ECF7D9019C91DB019D93BD0105
:102A5000A417B507A1F784E88093BC00ECEBF0E085
:102A600080818823ECF78091BB00888B84E9809378
:102A7000BC00BE016C5F7F4FF801085E1F4FDB0199
:102A80002C91322F3073CB010297DC018C9190E0B6
:102A9000B0E13B9F800D911D112491838083422FD3
:102AA000407C50E0440F551F440F551FCB01019748
:102AB000DC018C91480F511D538342832F7030E00D
:102AC000358324836D5F7F4F3696E017F107B9F6A3
:102AD00081E005C080E003C080E001C080E0609636
:102AE0000FB6F894DEBF0FBECDBFDF91CF911F911F
:102AF0000F9108959F939F770E9416170F900020C3
:102B000042F49058A2EA2AED3FE049E450E40E94E2
:102B1000A3150C94C3175058BB27AA270E94A315CE
:102B20000C94C3170E948A1738F00E94911720F066
:102B300039F49F3F19F426F40C9460170EF4E095D5
:102B4000E7FB0C945A17E92F0E94E81758F3BA17BD
:102B5000620773078407950720F079F4A6F50C94B3
:102B60000A180EF4E0950B2EBA2FA02D0B01B90117
:102B700090010C01CA01A0011124FF27591B99F0F3
:102B8000593F50F4503E68F11A16F040A22F232FFF
:102B9000342F4427585FF3CF469537952795A7954F
:102BA000F0405395C9F77EF41F16BA0B620B730BF6
:102BB000840BBAF09150A1F0FF0FBB1F661F771F67
:102BC000881FC2F70EC0BA0F621F731F841F48F41C
:102BD000879577956795B795F7959E3F08F0B0CFA5
:102BE0009395880F08F09927EE0F9795879508958C
:102BF000DF93DD27B92FBF7740E85FE3161617068E
:102C000048075B0718F4D92F0E9416189F938F93DB
:102C10007F936F930E942919ECEAF0E00E946317FA
:102C20000E94C3172F913F914F915F910E943118DD
:102C3000DD2351F09058A2EA2AED3FE049EC5FE332
:102C4000D0785D270E94A315DF910C94C3170E94D2
:102C5000361708F481E008950E949A17E3950C94C2
:102C6000D4170E9445160C94C3170E94911758F070
:102C70000E948A1740F029F45F3F29F00C945A17FC
:102C800051110C940B180C9460170E94E81768F30C
:102C90009923B1F3552391F3951B550BBB27AA2715
:102CA00062177307840738F09F5F5F4F220F331F4F
:102CB000441FAA1FA9F335D00E2E3AF0E0E832D017
:102CC00091505040E695001CCAF72BD0FE2F29D01A
:102CD000660F771F881FBB1F261737074807AB07EC
:102CE000B0E809F0BB0B802DBF01FF2793585F4F61
:102CF0003AF09E3F510578F00C945A170C940B183B
:102D00005F3FE4F3983ED4F3869577956795B79542
:102D1000F7959F5FC9F7880F911D9695879597F94D
:102D20000895E1E0660F771F881FBB1F62177307C6
:102D30008407BA0720F0621B730B840BBA0BEE1FDB
:102D400088F7E09508950E94AA166894B1110C9432
:102D50000B1808950E94F01788F09F5798F0B92F2C
:102D60009927B751B0F0E1F0660F771F881F991FC0
:102D70001AF0BA95C9F714C0B13091F00E940A1840
:102D8000B1E008950C940A18672F782F8827B85F50
:102D900039F0B93FCCF3869577956795B395D9F718
:102DA0003EF490958095709561957F4F8F4F9F4F22
:102DB0000895E89409C097FB3EF49095809570952E
:102DC00061957F4F8F4F9F4F9923A9F0F92F96E977
:102DD000BB279395F695879577956795B795F111EC
:102DE000F8CFFAF4BB0F11F460FF1BC06F5F7F4F89
:102DF0008F4F9F4F16C0882311F096E911C077239B
:102E000021F09EE8872F762F05C0662371F096E8A3
:102E1000862F70E060E02AF09A95660F771F881F72
:102E2000DAF7880F9695879597F90895DF93CF93F2
:102E30001F930F938B01EC01E9EDF0E00E94631703
:102E40000E94C3179801AE018B01EC0160E070E0B5
:102E500080E89FE30E948B150E94E9189801AE015B
:102E60000F911F91CF91DF910C943118990F0008A9
:102E7000550FAA0BE0E8FEEF16161706E807F9074C
:102E8000C0F012161306E407F50798F0621B730BE7
:102E9000840B950B39F40A2661F0232B242B252B68
:102EA00021F408950A2609F4A140A6958FEF811D0B
:102EB000811D089597F99F6780E870E060E00895AC
:102EC0009FEF80EC0895DF93CF931F930F93FF92B2
:102ED000EF92DF927B018C01689406C0DA2EEF013D
:102EE0000E943118FE01E894A591259135914591F4
:102EF0005591A6F3EF010E94A315FE019701A801C9
:102F0000DA9469F7DF90EF90FF900F911F91CF91C6
:102F1000DF91089500240A9416161706180609066C
:102F2000089500240A94121613061406050608953F
:102F30000C9460170E94F017D8F3E894E0E0BB27E8
:102F40009F57F0F02AED3FE049EC06C0EE0FBB0FB3
:102F5000661F771F881F28F0B23A6207730784073D
:102F600028F0B25A620B730B840BE3959A9572F7B3
:102F7000803830F49A95BB0F661F771F881FD2F7F1
:102F800090480C946919092E0394000C11F48823BD
:102F900052F0BB0F40F4BF2B11F460FF04C06F5F11
:102FA0007F4F8F4F9F4F0895EF93E0FF07C0A2EA36
:102FB0002AED3FE049EC5FEB0E94A3150E94C31786
:102FC0000F90039401FC9058E1E0F1E00C947C191F
:102FD00057FD9058440F551F59F05F3F71F04795CA
:102FE000880F97FB991F61F09F3F79F087950895AF
:102FF000121613061406551FF2CF4695F1DF08C0CE
:10300000161617061806991FF1CF869571056105EA
:1030100008940895E894BB2766277727CB0197F992
:1030200008950E94361708F48FEF08959B01AC01B4
:1030300060E070E080E89FE30C9431160E94311844
:103040000C94C3170E948A1738F00E94911720F041
:10305000952311F00C945A170C94601711240C94BA
:103060000B180E94E81770F3959FC1F3950F50E07D
:10307000551F629FF001729FBB27F00DB11D639F2A
:10308000AA27F00DB11DAA1F649F6627B00DA11DD0
:10309000661F829F2227B00DA11D621F739FB00D76
:1030A000A11D621F839FA00D611D221F749F3327E6
:1030B000A00D611D231F849F600D211D822F762F7F
:1030C0006A2F11249F5750409AF0F1F088234AF05C
:1030D000EE0FFF1FBB1F661F771F881F91505040C8
:1030E000A9F79E3F510580F00C945A170C940B18C9
:1030F0005F3FE4F3983ED4F3869577956795B7954F
:10310000F795E7959F5FC1F7FE2B880F911D969568
:10311000879597F90895FA01EE0FFF1F3096210564
:103120003105A1F16115710561F48038BFE39B079A
:1031300049F168949038810561F08038BFEF9B07B2
:1031400041F099234AF5FF3FE1053105210519F1C9
:10315000E8940894E795D901AA2329F4AB2FBE2F50
:10316000F85FD0F310C0FF5F70F4A695E0F7F73971
:1031700050F019F0FF3A38F49F779F930DD00F90DD
:1031800007FC9058089546F00C94601760E070E0DA
:1031900080E89FE308954FE79F775F934F933F93B6
:1031A0002F930E94D2192F913F914F915F910E94CE
:1031B0001E180C9435199F930E949A170F9007FCC4
:1031C000EE5F0C94D41719F416F40C9460170C9459
:1031D00067190E94F017B8F39923C9F3B6F39F5704
:1031E000550B87FF0E9475190024A0E640EA900164
:1031F00080585695979528F4805C660F771F881F36
:1032000020F026173707480730F4621B730B840B36
:10321000202931294A2BA69517940794202531257A
:103220004A2758F7660F771F881F20F026173707A1
:10323000480730F4620B730B840B200D311D411DC8
:10324000A09581F7B901842F9158880F969587959D
:1032500008959B01AC010C941E1829F416F00C94EF
:103260005A170C940A180C9460170E94F017A8F3D0
:103270009638A0F707F80F92E8942BE33AEA48EB68
:103280005FE70E9434180F920F920F924DB75EB70E
:103290000F920E941A1AEFE1F1E00E9463174F911A
:1032A0005F91EF91FF91E595EE1FFF1F49F0FE57EB
:1032B000E0684427EE0F441FFA95E1F74195550B5E
:1032C0000E9494190F9007FE0C94161808959F3FC2
:1032D00031F0915020F4879577956795B795880FD1
:1032E000911D9695879597F9089591505040660FD6
:1032F000771F881FD2F708959F938F937F936F93C3
:10330000FF93EF939B01AC010E941E18EF91FF9178
:103310000E9463172F913F914F915F910C941E185B
:103320000C945A170C9467190E94F017D8F399233C
:10333000C9F3940F511DA3F39150504094F059F0EC
:10334000882332F0660F771F881F91505040C1F7D5
:103350009E3F51052CF7880F911D9695879597F9FB
:1033600008955F3FACF0983E9CF0BB27869577951B
:103370006795B79508F4B1609395C1F7BB0F58F7FF
:1033800011F460FFE8CF6F5F7F4F8F4F9F4FE3CF08
:103390000C940B1816F00C9467190C946017689431
:1033A0000C945A170E94F017A8F39923C1F3AEF3B7
:1033B000DF93CF931F930F93FF92C92FDD278823AD
:1033C0002AF02197660F771F881FDAF720E030E098
:1033D00040E85FEB9FE3883920F0803E38F021968B
:1033E0008F770E948C15E7E4F1E004C00E948C15F1
:1033F000E4E7F1E00E9463178B01BE01EC01FB2EB4
:103400006F5771097595771F880B990B0E94DB1612
:1034100028E132E741E35FE30E943118AF2D9801C4
:10342000AE01FF900F911F91CF91DF910E94A315E4
:103430000C94C317FA01DC01AA0FBB1F9B01AC015E
:10344000BF5728F4222733274427507820C0B7518C
:1034500090F4AB2F0024469537952795011CA39532
:10346000D2F3002071F0220F331F441FB395DAF31B
:103470000ED00C948B1561307105A0E88A07B9460F
:1034800030F49B01AC016627772788279078309627
:1034900021F02083318342835383089597FB072EC5
:1034A00016F4009407D077FD09D00E94621A07FC39
:1034B00005D03EF4909581959F4F08957095619544
:1034C0007F4F0895AA1BBB1B51E107C0AA1FBB1F5A
:1034D000A617B70710F0A61BB70B881F991F5A95A0
:1034E000A9F780959095BC01CD010895BB274A307E
:1034F00031F4992322F4BDE2909581959F4F0C946D
:10350000821ABB27FB015527AA27880F991FAA1FDC
:10351000A41710F0A41B83955051B9F7A05DAA33EE
:1035200008F0A95DA193009779F7B111B1931192B9
:10353000CB010C949B1ADC01FC01672F719177235E
:10354000E1F7329704C07C916D9370836291AE175E
:0A355000BF07C8F30895F894FFCFF9
:08355A0000E100000000080080
:00000001FF
