:100000000C94B0000C94CD000C94CD000C94B7016E
:100010000C94CD000C94CD000C94CD000C94CD002C
:100020000C94CD000C94CD000C94DC020C941A03BB
:100030000C94CD000C94CD000C94CD000C94CD000C
:100040000C94CD000C9459010C94CD000C94CD006F
:100050000C94CD000C94CD000C94CD000C94CD00EC
:100060000C94CD000C94CD000C94CD000C94CD00DC
:100070000C94CD000C94CD000C94CD000C94CD00CC
:100080000C94CD000C94CD000C94CD000C94CD00BC
:100090000C94CD000C94CD000C94CD000C94CD00AC
:1000A0000C94CD000C94CD000C94CD000001000008
:1000B0004301120002000000014300030000FC00A5
:1000C0000401030904E8001202030904E000060326
:1000D000030904D600080803340031003000000092
:1000E00006034D003200000012034A002E002000DB
:1000F0004600690065006E00650000000403090405
:1001000009024300020100C032090400000102029A
:100110000100052400100105240101010424020648
:1001200005240600010705820310004009040100B0
:10013000020A0000000705030240000007058402D0
:100140004000001201000202000010C0167A0400F4
:1001500001010203010001C1120180360181360054
:1001600011241FBECFEFDAE0DEBFCDBF11E0A0E06B
:10017000B1E0E8E1FDE002C005900D92A037B107C3
:10018000D9F721E0A0E7B1E001C01D92A238B20783
:10019000E1F70E94CF000C948A060C940000E1E67F
:1001A000F0E080E8808310820E94110243E06FE457
:1001B00081E00E942202E1E8F0E080818B7F808371
:1001C00080818D7F80838081816080838081806158
:1001D0008083808188608083E0E8F0E080818260B5
:1001E0008083808181608083808180628083808140
:1001F0008F7E8083EFE6F0E080818260808388EEEE
:1002000093E0909389008093880010928B00109265
:100210008A007894C8E8D0E08091730190917401CD
:100220000197D1F76A9A729860917701709178017D
:10023000072E000C880B990B0E944505209179012F
:1002400030917A0140917B0150917C010E949D0484
:10025000882314F583EC99E00197F1F700C00000C2
:1002600060917701709178016F5F7F4F7093780193
:1002700060937701072E000C880B990B0E944505AF
:100280002091790130917A0140917B0150917C015C
:100290000E949D048823F4F26A9A729A1982188245
:1002A00010927801109277011092740110927301EC
:1002B000B3CF1F920F920FB60F9211242F933F933B
:1002C0004F935F936F937F938F939F93AF93BF935E
:1002D000CF93DF93EF93FF936E9A769860918800A7
:1002E00070918900C0917D01D0917E01CC0FDD1FFE
:1002F000CC0FDD1FC050DF4F80E090E00E9443052F
:10030000288139814A815B810E94F50520E030E037
:1003100048E452E40E94A2040E94140570938B00EA
:1003200060938A00269A80917D0190917E010196CA
:100330008B3191052CF490937E0180937D0104C054
:1003400010927E0110927D01FF91EF91DF91CF918C
:10035000BF91AF919F918F917F916F915F914F91DD
:100360003F912F910F900FBE0F901F9018951F92E5
:100370000F920FB60F9211242F933F934F935F93D9
:100380006F937F938F939F93AF93BF93EF93FF935D
:1003900063E080E791E00E947802882389F1E0E73A
:1003A000F1E08081218130E0322F2227280F311D9A
:1003B000309376012093750141EF4203C001439FC2
:1003C000900D11248E54914C67E070E00E946206FB
:1003D0007093890060938800628170E080E090E013
:1003E0000E9445056093790170937A0180937B01A7
:1003F00090937C0181E090E090937401809373016D
:10040000FF91EF91BF91AF919F918F917F916F91EC
:100410005F914F913F912F910F900FBE0F901F90C2
:100420001895589A599A5A9A8CE08093B800E9E640
:10043000F0E080818062808380818F7E8083EA9A71
:10044000789408951F93CF93DF93182FD62FC42F3E
:100450000E94110294EA9093BC00ECEBF0E09081D2
:100460009923ECF790E59093BB0094E89093BC003F
:10047000ECEBF0E090819923ECF79091B900987F34
:10048000903229F484E98093BC0080E02DC081E0A3
:100490008093BB0084E88093BC00ECEBF0E090819B
:1004A0009923ECF71093BB0084E88093BC00ECEB3D
:1004B000F0E080818823ECF7D093BB0084E8809340
:1004C000BC00ECEBF0E080818823ECF7C093BB002C
:1004D00084E88093BC00ECEBF0E080818823ECF7AB
:1004E00084E98093BC0081E0DF91CF911F91089552
:1004F000CF93DF939C0184EA8093BC00ECEBF0E0A7
:1005000090819923ECF781E58093BB0084E8809388
:10051000BC00ECEBF0E090819923ECF78091B900FE
:10052000887F883429F484E98093BC0080E041C04E
:1005300084EC8093BC00ECEBF0E090819923ECF725
:100540004091BB00461309C0842F90E00197181614
:10055000190644F040E050E01AC084E98093BC00E2
:1005600080E027C0D90150E041505109B901640F22
:10057000751FECEBF0E084ECCBEBD0E08083908156
:100580009923ECF798819D93A617B707B9F784E8EC
:100590008093BC00ECEBF0E090819923ECF7809124
:1005A000BB00F901E40FF51F808384E98093BC0050
:1005B00081E0DF91CF9108951F920F920FB60F92B5
:1005C00011248F939F93EF93FF93E1EEF0E08081EE
:1005D000108283FF11C01092E90091E09093EB002C
:1005E0001092EC0092E19093ED0098E09093F0006F
:1005F0001092810110927F0182FF13C080918101CE
:10060000882379F080918001882359F0815080936C
:100610008001811106C084E08093E9008AE3809321
:10062000E800FF91EF919F918F910F900FBE0F9077
:100630001F9018951F920F920FB60F9211240F93CF
:100640001F932F933F934F935F936F937F938F935A
:100650009F93AF93BF93CF93DF93EF93FF9310924A
:10066000E9008091E80083FF4CC1E1EFF0E0608198
:1006700080812081908130E0392B4081908150E051
:10068000592B7081C08192EF9093E800863009F079
:1006900058C004C081E28093EB003AC166E08CEA66
:1006A00090E0FC01A591B4912A173B0711F0079641
:1006B00023C0FC013296A591B4914A175B0711F053
:1006C00007961AC0FC01349645915491FC01369668
:1006D0002491872F90E09C2B8F3F910519F010F00B
:1006E0008FEF90E0821708F4282FA8EEB0E070E1B9
:1006F0006EEFC1EFD0E003C0615099F6CBCF8C9183
:10070000982F9570E1F382FD03C1322F213108F05B
:10071000372F332309F4F9C0FA01832F949198837A
:10072000815031968111FACF8FEF830F90E00196BF
:10073000480F591F231B6C932111E1CF3031F9F27F
:10074000E7C0853061F48EEF8093E800E8EEF0E0DA
:10075000808180FFFDCF20682093E300D9C08930DD
:1007600009F035C06111CDC02093810110927F0145
:10077000109280018EEF8093E80081E025E531E062
:10078000C9EED0E0ABEEB0E00CEE10E06DEE70E044
:100790008883A9014F5F5F4FF90194919C9399233E
:1007A00061F0FA014491F8014083F9013296949185
:1007B0002D5F3F4FFB01908301C09A018F5F853011
:1007C00039F7EAEEF0E08EE180831082A1C0883034
:1007D00081F4603809F095C0E8EEF0E0808180FF98
:1007E000FDCF809181018093F1008EEF8093E8002E
:1007F0008FC08132B9F4613A09F083C0E8EEF0E0CD
:10080000808180FFFDCFE8E6F1E02FE631E0A1EF47
:10081000B0E081918C93E217F307D9F78EEF8093C4
:10082000E80076C08032D1F4613209F06AC0E8EEA7
:10083000F0E0808182FFFDCFE8E6F1E02FE631E0D5
:10084000A1EFB0E08C918193E217F307D9F7E8EEBE
:10085000F0E08BEF80838EEF80835AC0823271F498
:10086000613209F04EC020937F01E8EEF0E0808114
:1008700080FFFDCF8EEF8093E8004AC081111AC03F
:10088000E8EEF0E0808180FFFDCF623851F4E9EEC0
:10089000F0E040838091EB0085FB882780F910828F
:1008A00001C080E0E1EFF0E0808310828EEF809362
:1008B000E8002EC0982F9D7F913019F5623009F520
:1008C000232BF9F44F779FEF940F9430D0F49EEFE1
:1008D0009093E8004093E900833021F481E2809313
:1008E000EB0016C089E18093EB0081E090E002C04C
:1008F000880F991F4A95E2F7EAEEF0E080831082B4
:1009000007C081E28093EB0003C06C932111F7CE06
:10091000FF91EF91DF91CF91BF91AF919F918F9117
:100920007F916F915F914F913F912F911F910F9107
:100930000F900FBE0F901F9018950E94800508F42D
:1009400081E008950E94B6040C94BB050E94B40592
:1009500058F00E94AD0540F029F45F3F29F00C9457
:10096000A40551110C94EF050C94AA050E94CC0526
:1009700068F39923B1F3552391F3951B550BBB27CE
:10098000AA2762177307840738F09F5F5F4F220F13
:10099000331F441FAA1FA9F335D00E2E3AF0E0E80A
:1009A00032D091505040E695001CCAF72BD0FE2F54
:1009B00029D0660F771F881FBB1F261737074807E8
:1009C000AB07B0E809F0BB0B802DBF01FF279358A0
:1009D0005F4F3AF09E3F510578F00C94A4050C94BB
:1009E000EF055F3FE4F3983ED4F3869577956795DE
:1009F000B795F7959F5FC9F7880F911D96958795D5
:100A000097F90895E1E0660F771F881FBB1F6217F3
:100A100073078407BA0720F0621B730B840BBA0BB1
:100A2000EE1F88F7E09508950E94D40588F09F573F
:100A300098F0B92F9927B751B0F0E1F0660F771F02
:100A4000881F991F1AF0BA95C9F714C0B13091F0F8
:100A50000E94EE05B1E008950C94EE05672F782F03
:100A60008827B85F39F0B93FCCF3869577956795BD
:100A7000B395D9F73EF490958095709561957F4F29
:100A80008F4F9F4F0895E89409C097FB3EF49095CF
:100A90008095709561957F4F8F4F9F4F9923A9F057
:100AA000F92F96E9BB279395F695879577956795E6
:100AB000B795F111F8CFFAF4BB0F11F460FF1BC02A
:100AC0006F5F7F4F8F4F9F4F16C0882311F096E9BD
:100AD00011C0772321F09EE8872F762F05C066236B
:100AE00071F096E8862F70E060E02AF09A95660F24
:100AF000771F881FDAF7880F9695879597F90895DD
:100B0000990F0008550FAA0BE0E8FEEF161617061E
:100B1000E807F907C0F012161306E407F50798F086
:100B2000621B730B840B950B39F40A2661F0232B9F
:100B3000242B252B21F408950A2609F4A140A6951B
:100B40008FEF811D811D089597F99F6780E870E000
:100B500060E008959FEF80EC089500240A94161633
:100B6000170618060906089500240A94121613069B
:100B7000140605060895092E0394000C11F4882329
:100B800052F0BB0F40F4BF2B11F460FF04C06F5F45
:100B90007F4F8F4F9F4F089557FD9058440F551F1B
:100BA00059F05F3F71F04795880F97FB991F61F0EF
:100BB0009F3F79F087950895121613061406551F66
:100BC000F2CF4695F1DF08C0161617061806991FD2
:100BD000F1CF86957105610508940895E894BB27C7
:100BE00066277727CB0197F908950E9408060C9491
:100BF000BB050E94AD0538F00E94B40520F0952396
:100C000011F00C94A4050C94AA0511240C94EF0582
:100C10000E94CC0570F3959FC1F3950F50E0551FCE
:100C2000629FF001729FBB27F00DB11D639FAA2741
:100C3000F00DB11DAA1F649F6627B00DA11D661F90
:100C4000829F2227B00DA11D621F739FB00DA11DB1
:100C5000621F839FA00D611D221F749F3327A00D6B
:100C6000611D231F849F600D211D822F762F6A2F07
:100C700011249F5750409AF0F1F088234AF0EE0F6C
:100C8000FF1FBB1F661F771F881F91505040A9F799
:100C90009E3F510580F00C94A4050C94EF055F3F36
:100CA000E4F3983ED4F3869577956795B795F795D5
:100CB000E7959F5FC1F7FE2B880F911D969587954D
:100CC00097F9089597FB072E16F4009407D077FD47
:100CD00009D00E94760607FC05D03EF490958195D8
:100CE0009F4F0895709561957F4F0895AA1BBB1B78
:100CF00051E107C0AA1FBB1FA617B70710F0A61B1C
:100D0000B70B881F991F5A95A9F780959095BC013C
:080D1000CD010895F894FFCF16
:100D18000000C8410000F8410000144200002842C9
:100D280000003842000044420000484200004842A7
:100D3800000040420000304200002042000008420B
:100D48000000E0410000B041000080410000204167
:100D58000000C0400000004000000000000000004B
:100D68000000803F0000804000000041000050412A
:100D7800000098410000C84100E1000000000800A0
:00000001FF
