S01300005374726F626F73636F70652E737265637E
S11300000C94B0000C94CD000C94CD000C94CD0055
S11300100C94CD000C94CD000C94CD000C94CD0028
S11300200C94CD000C94CD000C9480020C94BE0270
S11300300C94CD000C94CD000C94CD000C94CD0008
S11300400C94CD000C94CD000C94CD000C94CD00F8
S11300500C94CD000C94CD000C94CD000C94CD00E8
S11300600C94CD000C94CD000C94CD000C94CD00D8
S11300700C94CD000C94CD000C94CD000C94CD00C8
S11300800C94CD000C94CD000C94CD000C94CD00B8
S11300900C94CD000C94CD000C94CD000C94CD00A8
S11300A00C94CD000C94CD000C94CD000001000004
S11300B04301120002000000014300030000FC00A1
S11300C00401030904E8001202030904E000060322
S11300D0030904D60008080334003100300000008E
S11300E006034D003200000012034A002E002000D7
S11300F04600690065006E00650000000403090401
S113010009024300020100C0320904000001020296
S11301100100052400100105240101010424020644
S113012005240600010705820310004009040100AC
S1130130020A0000000705030240000007058402CC
S11301404000001201000202000010C0167A0400F0
S113015001010203010001C1120180360181360050
S113016011241FBECFEFDAE0DEBFCDBF11E0A0E067
S1130170B1E0E8E7FDE002C005900D92A830B107B8
S1130180D9F721E0A8E0B1E001C01D92AC30B2077C
S1130190E1F70E94CF000C94BA060C940000CF93B0
S11301A0DF93CDB7DEB760970FB6F894DEBF0FBE0E
S11301B0CDBF0E940C02E1E6F0E080E8808386E097
S11301C08083ACE7B0E08C918F778C938C918064C2
S11301D08C93EEE7F0E080818E7F8083EAE7F0E0A5
S11301E08081806280838C918E7F8C938C918D7FB3
S11301F08C938C918B7F8C93ABE7B0E08C918F7D4B
S11302008C938081806880838081806480838081F6
S11302108061808380818B7F808380818260808302
S11302208081816080830F2EF8E8CF2ED12CF02DB1
S1130230212C312C412C512C0F2EF1E8EF2EF12CD6
S1130240F02DEAE7F0E0808184FF2BC0E8E7F0E0DE
S11302506081718180E090E00E948A0521E136EBA3
S11302604AE851E40E94760421E136EB4AE052E484
S11302700E94E20420E030E040E05FE30E94750465
S113028020E030E04CEE51E40E94E20420E03FEF35
S11302904FE757E40E9418060E945B05F60171833C
S11302A06083499905C0642C752C00E010E004C0FB
S11302B0622C732C00E81FE34A9905C04D825E82CC
S11302C01F82188606C02D823E82F0E8FF838FE3EA
S11302D088874B9905C049865A861B861C8606C0AA
S11302E029863A86E0E8EB87FFE3FC874C9905C052
S11302F04D865E861F86188A06C02D863E8680E857
S11303008F87EFE3E88BF6016081718180E090E0F4
S11303100E948A0569837A838B839C832DEC3CEC51
S11303204CE45DE3662D772D802F912F0E941806F3
S11303304B015C012AE939E949E15EE36D817E8183
S11303408F8198850E9418069B01AC01C501B401F8
S11303500E9476044B015C012AE939E949E95EE32C
S113036069857A858B859C850E9418069B01AC0162
S1130370C501B4010E9476044B015C012DEC3CECF8
S11303804CEC5EE36D857E858F8598890E94180606
S11303909B01AC01C501B4010E9476042DEC3CEC38
S11303A04CE45DE30E9476049B01AC0169817A818F
S11303B08B819C810E9418060E945B05EAE8F0E0AC
S11303C071836083662D772D802F912F0E945405B1
S11303D0CB010E944104F701808180618083808188
S11303E088608083E0E8F0E080818260808380819F
S11303F08160808380818062808380818F7E80831E
S1130400F70180818B7F80838081826080838081FB
S11304108E7F8083269A15CF81E08093D70080EA6F
S11304208093D80082E189BD09B400FEFDCF80E944
S11304308093D8001092E00010920B0110920801F2
S11304408CE08093E20078940895CF93DF939091A9
S11304500B01992309F44CC09FB7F89424E020932E
S1130460E90020910901222349F02091E80025FDAB
S113047003C09FBF8FEF41C0109209013091E40087
S1130480375E2091E80025FD24C09FBF9091E400D1
S1130490931781F090910B01992361F1A9EEB0E0DB
S11304A044E0E8EEF0E0C4EED0E00DC09FBF9881D8
S11304B0931305C081E0809309018FEF1EC09091D2
S11304C00B019923C9F09FB7F8944C93208125FF21
S11304D0EDCF8093F1008091E80085FD03C08AE3AD
S11304E08093E80085E080930A019FBF80E005C007
S11304F08FEF03C08FEF01C08FEFDF91CF9108958D
S11305001F920F920FB60F9211248F939F93EF9324
S1130510FF93E1EEF0E08081108283FF11C010921E
S1130520E90091E09093EB001092EC0092E190933B
S1130530ED0098E09093F00010920B0110920801E6
S113054082FF13C080910B01882379F080910A0106
S1130550882359F0815080930A01811106C084E0F8
S11305608093E9008AE38093E800FF91EF919F91E3
S11305708F910F900FBE0F901F9018951F920F929E
S11305800FB60F9211240F931F932F933F934F9302
S11305905F936F937F938F939F93AF93BF93CF9307
S11305A0DF93EF93FF931092E9008091E80083FFBB
S11305B04CC1E1EFF0E0608180812081908130E0E6
S11305C0392B4081908150E0592B7081C08192EF8A
S11305D09093E800863009F058C004C081E280930B
S11305E0EB003AC166E08CEA90E0FC01A591B4917D
S11305F02A173B0711F0079623C0FC013296A591F8
S1130600B4914A175B0711F007961AC0FC0134969F
S113061045915491FC0136962491872F90E09C2BB0
S11306208F3F910519F010F08FEF90E0821708F4D6
S1130630282FA8EEB0E070E16EEFC1EFD0E003C068
S1130640615099F6CBCF8C91982F9570E1F382FD90
S113065003C1322F213108F0372F332309F4F9C0B5
S1130660FA01832F94919883815031968111FACFA6
S11306708FEF830F90E00196480F591F231B6C9353
S11306802111E1CF3031F9F2E7C0853061F48EEF0A
S11306908093E800E8EEF0E0808180FFFDCF2068E1
S11306A02093E300D9C0893009F035C06111CDC071
S11306B020930B011092080110920A018EEF80938F
S11306C0E80081E025E531E0C9EED0E0ABEEB0E032
S11306D00CEE10E06DEE70E08883A9014F5F5F4F70
S11306E0F90194919C93992361F0FA014491F801E2
S11306F04083F901329694912D5F3F4FFB01908323
S113070001C09A018F5F853039F7EAEEF0E08EE19F
S113071080831082A1C0883081F4603809F095C0CC
S1130720E8EEF0E0808180FFFDCF80910B018093A3
S1130730F1008EEF8093E8008FC08132B9F4613A02
S113074009F083C0E8EEF0E0808180FFFDCFE0E0B7
S1130750F1E027E031E0A1EFB0E081918C93E21762
S1130760F307D9F78EEF8093E80076C08032D1F496
S1130770613209F06AC0E8EEF0E0808182FFFDCFCB
S1130780E0E0F1E027E031E0A1EFB0E08C9181936B
S1130790E217F307D9F7E8EEF0E08BEF80838EEFF2
S11307A080835AC0823271F4613209F04EC02093C2
S11307B00801E8EEF0E0808180FFFDCF8EEF8093AA
S11307C0E8004AC081111AC0E8EEF0E0808180FFA1
S11307D0FDCF623851F4E9EEF0E040838091EB0004
S11307E085FB882780F9108201C080E0E1EFF0E00A
S11307F0808310828EEF8093E8002EC0982F9D7F17
S1130800913019F5623009F5232BF9F44F779FEFF6
S1130810940F9430D0F49EEF9093E8004093E90055
S1130820833021F481E28093EB0016C089E1809348
S1130830EB0081E090E002C0880F991F4A95E2F72F
S1130840EAEEF0E08083108207C081E28093EB003F
S113085003C06C932111F7CEFF91EF91DF91CF91FB
S1130860BF91AF919F918F917F916F915F914F91C4
S11308703F912F911F910F910F900FBE0F901F90DA
S11308801895EF92FF920F931F93CF93DF93CDB7F9
S1130890DEB727970FB6F894DEBF0FBECDBF8E012B
S11308A00F5F1F4F27E0F80111922A95E9F74AE0FC
S11308B0B8010E9485067E01F8E0EF0EF11CF801F4
S11308C081918F0181110E9425020E151F05B9F730
S11308D027960FB6F894DEBF0FBECDBFDF91CF9140
S11308E01F910F91FF90EF9008955058BB27AA27AE
S11308F00E948D040C94DE050E94D00538F00E94FD
S1130900D70520F039F49F3F19F426F40C94CD0553
S11309100EF4E095E7FB0C94C705E92F0E94EF0560
S113092058F3BA17620773078407950720F079F420
S1130930A6F50C9411060EF4E0950B2EBA2FA02DFB
S11309400B01B90190010C01CA01A0011124FF2778
S1130950591B99F0593F50F4503E68F11A16F04073
S1130960A22F232F342F4427585FF3CF4695379572
S11309702795A795F0405395C9F77EF41F16BA0B37
S1130980620B730B840BBAF09150A1F0FF0FBB1FE5
S1130990661F771F881FC2F70EC0BA0F621F731F2E
S11309A0841F48F4879577956795B795F7959E3F8B
S11309B008F0B0CF9395880F08F09927EE0F97951C
S11309C0879508950E94F6040C94DE050E94D705CD
S11309D058F00E94D00540F029F45F3F29F00C94B0
S11309E0C70551110C9412060C94CD050E94EF0515
S11309F068F39923B1F3552391F3951B550BBB274A
S1130A00AA2762177307840738F09F5F5F4F220F8E
S1130A10331F441FAA1FA9F335D00E2E3AF0E0E885
S1130A2032D091505040E695001CCAF72BD0FE2FCF
S1130A3029D0660F771F881FBB1F26173707480763
S1130A40AB07B0E809F0BB0B802DBF01FF2793581B
S1130A505F4F3AF09E3F510578F00C94C7050C9413
S1130A6012065F3FE4F3983ED4F386957795679535
S1130A70B795F7959F5FC9F7880F911D9695879550
S1130A8097F90895E1E0660F771F881FBB1F62176F
S1130A9073078407BA0720F0621B730B840BBA0B2D
S1130AA0EE1F88F7E09508950E945B056894B111E4
S1130AB00C94120608950E94F70588F09F5798F049
S1130AC0B92F9927B751B0F0E1F0660F771F881F4F
S1130AD0991F1AF0BA95C9F714C0B13091F00E9469
S1130AE01106B1E008950C941106672F782F88271A
S1130AF0B85F39F0B93FCCF3869577956795B39590
S1130B00D9F73EF490958095709561957F4F8F4FFE
S1130B109F4F0895E89409C097FB3EF49095809503
S1130B20709561957F4F8F4F9F4F9923A9F0F92FAF
S1130B3096E9BB279395F695879577956795B7952D
S1130B40F111F8CFFAF4BB0F11F460FF1BC06F5F13
S1130B507F4F8F4F9F4F16C0882311F096E911C025
S1130B60772321F09EE8872F762F05C0662371F046
S1130B7096E8862F70E060E02AF09A95660F771F5A
S1130B80881FDAF7880F9695879597F9089597F94E
S1130B909F6780E870E060E008959FEF80EC08951F
S1130BA000240A9416161706180609060895002448
S1130BB00A9412161306140605060895092E0394C2
S1130BC0000C11F4882352F0BB0F40F4BF2B11F436
S1130BD060FF04C06F5F7F4F8F4F9F4F089557FD95
S1130BE09058440F551F59F05F3F71F04795880F97
S1130BF097FB991F61F09F3F79F08795089512162E
S1130C0013061406551FF2CF4695F1DF08C01616D9
S1130C1017061806991FF1CF86957105610508948A
S1130C200895E894BB2766277727CB0197F90895A1
S1130C300E942B060C94DE050E94D00538F00E9419
S1130C40D70520F0952311F00C94C7050C94CD051D
S1130C5011240C9412060E94EF0570F3959FC1F3C2
S1130C60950F50E0551F629FF001729FBB27F00D56
S1130C70B11D639FAA27F00DB11DAA1F649F6627AB
S1130C80B00DA11D661F829F2227B00DA11D621FFA
S1130C90739FB00DA11D621F839FA00D611D221FB4
S1130CA0749F3327A00D611D231F849F600D211D98
S1130CB0822F762F6A2F11249F5750409AF0F1F01B
S1130CC088234AF0EE0FFF1FBB1F661F771F881F84
S1130CD091505040A9F79E3F510580F00C94C705F0
S1130CE00C9412065F3FE4F3983ED4F3869577950F
S1130CF06795B795F795E7959F5FC1F7FE2B880F2A
S1130D00911D9695879597F90895BB274A3031F43C
S1130D10992322F4BDE2909581959F4F0C949106FE
S1130D20BB27FB015527AA27880F991FAA1FA417C1
S1130D3010F0A41B83955051B9F7A05DAA3308F0B5
S1130D40A95DA193009779F7B111B1931192CB01E9
S1130D500C94AA06DC01FC01672F71917723E1F75B
S1130D60329704C07C916D9370836291AE17BF0774
S10B0D70C8F30895F894FFCFC5
S10B0D7800E100000000080086
S9030000FC
